{
  "contractName": "Leap",
  "abi": [
    {
      "inputs": [
        {
          "internalType": "string",
          "name": "name",
          "type": "string"
        },
        {
          "internalType": "string",
          "name": "symbol",
          "type": "string"
        },
        {
          "internalType": "uint8",
          "name": "decimals",
          "type": "uint8"
        }
      ],
      "stateMutability": "nonpayable",
      "type": "constructor"
    },
    {
      "anonymous": false,
      "inputs": [
        {
          "indexed": true,
          "internalType": "address",
          "name": "owner",
          "type": "address"
        },
        {
          "indexed": true,
          "internalType": "address",
          "name": "spender",
          "type": "address"
        },
        {
          "indexed": false,
          "internalType": "uint256",
          "name": "value",
          "type": "uint256"
        }
      ],
      "name": "Approval",
      "type": "event"
    },
    {
      "anonymous": false,
      "inputs": [
        {
          "indexed": false,
          "internalType": "uint256",
          "name": "amount",
          "type": "uint256"
        }
      ],
      "name": "BurnContractEth",
      "type": "event"
    },
    {
      "anonymous": false,
      "inputs": [
        {
          "indexed": false,
          "internalType": "uint256",
          "name": "amount",
          "type": "uint256"
        }
      ],
      "name": "BurnSupply",
      "type": "event"
    },
    {
      "anonymous": false,
      "inputs": [
        {
          "indexed": false,
          "internalType": "address",
          "name": "to",
          "type": "address"
        },
        {
          "indexed": false,
          "internalType": "uint256",
          "name": "amount",
          "type": "uint256"
        }
      ],
      "name": "CharityWithdrawal",
      "type": "event"
    },
    {
      "anonymous": false,
      "inputs": [
        {
          "indexed": false,
          "internalType": "uint256",
          "name": "amount",
          "type": "uint256"
        },
        {
          "indexed": false,
          "internalType": "uint256",
          "name": "deadline",
          "type": "uint256"
        }
      ],
      "name": "LpTokensLocked",
      "type": "event"
    },
    {
      "anonymous": false,
      "inputs": [
        {
          "indexed": false,
          "internalType": "uint256",
          "name": "amount",
          "type": "uint256"
        }
      ],
      "name": "LpTokensWithdrawn",
      "type": "event"
    },
    {
      "anonymous": false,
      "inputs": [
        {
          "indexed": false,
          "internalType": "address",
          "name": "to",
          "type": "address"
        },
        {
          "indexed": false,
          "internalType": "uint256",
          "name": "amount",
          "type": "uint256"
        }
      ],
      "name": "MarketingWithdrawal",
      "type": "event"
    },
    {
      "anonymous": false,
      "inputs": [
        {
          "indexed": false,
          "internalType": "uint256",
          "name": "minTokensBeforeSwap",
          "type": "uint256"
        }
      ],
      "name": "MinTokensBeforeSwapUpdated",
      "type": "event"
    },
    {
      "anonymous": false,
      "inputs": [
        {
          "indexed": false,
          "internalType": "address",
          "name": "to",
          "type": "address"
        },
        {
          "indexed": false,
          "internalType": "uint256",
          "name": "amount",
          "type": "uint256"
        }
      ],
      "name": "ModeratorWithdrawal",
      "type": "event"
    },
    {
      "anonymous": false,
      "inputs": [
        {
          "indexed": true,
          "internalType": "address",
          "name": "previousOwner",
          "type": "address"
        },
        {
          "indexed": true,
          "internalType": "address",
          "name": "newOwner",
          "type": "address"
        }
      ],
      "name": "OwnershipTransferred",
      "type": "event"
    },
    {
      "anonymous": false,
      "inputs": [
        {
          "indexed": true,
          "internalType": "address",
          "name": "from",
          "type": "address"
        },
        {
          "indexed": true,
          "internalType": "address",
          "name": "to",
          "type": "address"
        },
        {
          "indexed": false,
          "internalType": "uint256",
          "name": "value",
          "type": "uint256"
        }
      ],
      "name": "Transfer",
      "type": "event"
    },
    {
      "inputs": [
        {
          "internalType": "address",
          "name": "",
          "type": "address"
        }
      ],
      "name": "_isExcludedFromFeeIn",
      "outputs": [
        {
          "internalType": "bool",
          "name": "",
          "type": "bool"
        }
      ],
      "stateMutability": "view",
      "type": "function"
    },
    {
      "inputs": [
        {
          "internalType": "address",
          "name": "",
          "type": "address"
        }
      ],
      "name": "_isExcludedFromFeeOut",
      "outputs": [
        {
          "internalType": "bool",
          "name": "",
          "type": "bool"
        }
      ],
      "stateMutability": "view",
      "type": "function"
    },
    {
      "inputs": [],
      "name": "_maxTaxFee",
      "outputs": [
        {
          "internalType": "uint256",
          "name": "",
          "type": "uint256"
        }
      ],
      "stateMutability": "view",
      "type": "function"
    },
    {
      "inputs": [],
      "name": "_maxTxAmount",
      "outputs": [
        {
          "internalType": "uint256",
          "name": "",
          "type": "uint256"
        }
      ],
      "stateMutability": "view",
      "type": "function"
    },
    {
      "inputs": [],
      "name": "_taxFee",
      "outputs": [
        {
          "internalType": "uint256",
          "name": "",
          "type": "uint256"
        }
      ],
      "stateMutability": "view",
      "type": "function"
    },
    {
      "inputs": [],
      "name": "geUnlockTime",
      "outputs": [
        {
          "internalType": "uint256",
          "name": "",
          "type": "uint256"
        }
      ],
      "stateMutability": "view",
      "type": "function"
    },
    {
      "inputs": [
        {
          "internalType": "uint256",
          "name": "time",
          "type": "uint256"
        }
      ],
      "name": "lock",
      "outputs": [],
      "stateMutability": "nonpayable",
      "type": "function"
    },
    {
      "inputs": [],
      "name": "owner",
      "outputs": [
        {
          "internalType": "address",
          "name": "",
          "type": "address"
        }
      ],
      "stateMutability": "view",
      "type": "function"
    },
    {
      "inputs": [],
      "name": "renounceOwnership",
      "outputs": [],
      "stateMutability": "nonpayable",
      "type": "function"
    },
    {
      "inputs": [
        {
          "internalType": "address",
          "name": "newOwner",
          "type": "address"
        }
      ],
      "name": "transferOwnership",
      "outputs": [],
      "stateMutability": "nonpayable",
      "type": "function"
    },
    {
      "inputs": [],
      "name": "uniswapV2Pair",
      "outputs": [
        {
          "internalType": "address",
          "name": "",
          "type": "address"
        }
      ],
      "stateMutability": "view",
      "type": "function"
    },
    {
      "inputs": [],
      "name": "uniswapV2Router",
      "outputs": [
        {
          "internalType": "contract IUniswapV2Router02",
          "name": "",
          "type": "address"
        }
      ],
      "stateMutability": "view",
      "type": "function"
    },
    {
      "inputs": [],
      "name": "unlock",
      "outputs": [],
      "stateMutability": "nonpayable",
      "type": "function"
    },
    {
      "stateMutability": "payable",
      "type": "receive"
    },
    {
      "inputs": [
        {
          "internalType": "uint256",
          "name": "amount",
          "type": "uint256"
        },
        {
          "internalType": "address",
          "name": "to",
          "type": "address"
        }
      ],
      "name": "withdrawMarketingTokens",
      "outputs": [],
      "stateMutability": "nonpayable",
      "type": "function"
    },
    {
      "inputs": [
        {
          "internalType": "uint256",
          "name": "amount",
          "type": "uint256"
        },
        {
          "internalType": "address",
          "name": "to",
          "type": "address"
        }
      ],
      "name": "withdrawCharityTokens",
      "outputs": [],
      "stateMutability": "nonpayable",
      "type": "function"
    },
    {
      "inputs": [
        {
          "internalType": "uint256",
          "name": "amount",
          "type": "uint256"
        },
        {
          "internalType": "address",
          "name": "to",
          "type": "address"
        }
      ],
      "name": "withdrawModeratorTokens",
      "outputs": [],
      "stateMutability": "nonpayable",
      "type": "function"
    },
    {
      "inputs": [],
      "name": "name",
      "outputs": [
        {
          "internalType": "string",
          "name": "",
          "type": "string"
        }
      ],
      "stateMutability": "view",
      "type": "function"
    },
    {
      "inputs": [],
      "name": "symbol",
      "outputs": [
        {
          "internalType": "string",
          "name": "",
          "type": "string"
        }
      ],
      "stateMutability": "view",
      "type": "function"
    },
    {
      "inputs": [],
      "name": "decimals",
      "outputs": [
        {
          "internalType": "uint8",
          "name": "",
          "type": "uint8"
        }
      ],
      "stateMutability": "view",
      "type": "function"
    },
    {
      "inputs": [],
      "name": "totalSupply",
      "outputs": [
        {
          "internalType": "uint256",
          "name": "",
          "type": "uint256"
        }
      ],
      "stateMutability": "view",
      "type": "function"
    },
    {
      "inputs": [
        {
          "internalType": "address",
          "name": "account",
          "type": "address"
        }
      ],
      "name": "balanceOf",
      "outputs": [
        {
          "internalType": "uint256",
          "name": "",
          "type": "uint256"
        }
      ],
      "stateMutability": "view",
      "type": "function"
    },
    {
      "inputs": [
        {
          "internalType": "address",
          "name": "recipient",
          "type": "address"
        },
        {
          "internalType": "uint256",
          "name": "amount",
          "type": "uint256"
        }
      ],
      "name": "transfer",
      "outputs": [
        {
          "internalType": "bool",
          "name": "",
          "type": "bool"
        }
      ],
      "stateMutability": "nonpayable",
      "type": "function"
    },
    {
      "inputs": [
        {
          "internalType": "address",
          "name": "owner",
          "type": "address"
        },
        {
          "internalType": "address",
          "name": "spender",
          "type": "address"
        }
      ],
      "name": "allowance",
      "outputs": [
        {
          "internalType": "uint256",
          "name": "",
          "type": "uint256"
        }
      ],
      "stateMutability": "view",
      "type": "function"
    },
    {
      "inputs": [
        {
          "internalType": "address",
          "name": "spender",
          "type": "address"
        },
        {
          "internalType": "uint256",
          "name": "amount",
          "type": "uint256"
        }
      ],
      "name": "approve",
      "outputs": [
        {
          "internalType": "bool",
          "name": "",
          "type": "bool"
        }
      ],
      "stateMutability": "nonpayable",
      "type": "function"
    },
    {
      "inputs": [
        {
          "internalType": "address",
          "name": "sender",
          "type": "address"
        },
        {
          "internalType": "address",
          "name": "recipient",
          "type": "address"
        },
        {
          "internalType": "uint256",
          "name": "amount",
          "type": "uint256"
        }
      ],
      "name": "transferFrom",
      "outputs": [
        {
          "internalType": "bool",
          "name": "",
          "type": "bool"
        }
      ],
      "stateMutability": "nonpayable",
      "type": "function"
    },
    {
      "inputs": [
        {
          "internalType": "address",
          "name": "spender",
          "type": "address"
        },
        {
          "internalType": "uint256",
          "name": "addedValue",
          "type": "uint256"
        }
      ],
      "name": "increaseAllowance",
      "outputs": [
        {
          "internalType": "bool",
          "name": "",
          "type": "bool"
        }
      ],
      "stateMutability": "nonpayable",
      "type": "function"
    },
    {
      "inputs": [
        {
          "internalType": "address",
          "name": "spender",
          "type": "address"
        },
        {
          "internalType": "uint256",
          "name": "subtractedValue",
          "type": "uint256"
        }
      ],
      "name": "decreaseAllowance",
      "outputs": [
        {
          "internalType": "bool",
          "name": "",
          "type": "bool"
        }
      ],
      "stateMutability": "nonpayable",
      "type": "function"
    },
    {
      "inputs": [
        {
          "internalType": "uint256",
          "name": "tokenAmount",
          "type": "uint256"
        }
      ],
      "name": "burnSupply",
      "outputs": [],
      "stateMutability": "nonpayable",
      "type": "function"
    },
    {
      "inputs": [
        {
          "internalType": "uint256",
          "name": "tAmount",
          "type": "uint256"
        },
        {
          "internalType": "bool",
          "name": "deductTransferFee",
          "type": "bool"
        }
      ],
      "name": "reflectionFromToken",
      "outputs": [
        {
          "internalType": "uint256",
          "name": "",
          "type": "uint256"
        }
      ],
      "stateMutability": "view",
      "type": "function"
    },
    {
      "inputs": [
        {
          "internalType": "uint256",
          "name": "rAmount",
          "type": "uint256"
        }
      ],
      "name": "tokenFromReflection",
      "outputs": [
        {
          "internalType": "uint256",
          "name": "",
          "type": "uint256"
        }
      ],
      "stateMutability": "view",
      "type": "function"
    },
    {
      "inputs": [
        {
          "internalType": "address",
          "name": "account",
          "type": "address"
        }
      ],
      "name": "excludeFromReward",
      "outputs": [],
      "stateMutability": "nonpayable",
      "type": "function"
    },
    {
      "inputs": [
        {
          "internalType": "address",
          "name": "account",
          "type": "address"
        }
      ],
      "name": "includeInReward",
      "outputs": [],
      "stateMutability": "nonpayable",
      "type": "function"
    },
    {
      "inputs": [],
      "name": "totalFees",
      "outputs": [
        {
          "internalType": "uint256",
          "name": "",
          "type": "uint256"
        }
      ],
      "stateMutability": "view",
      "type": "function"
    },
    {
      "inputs": [
        {
          "internalType": "address",
          "name": "account",
          "type": "address"
        }
      ],
      "name": "excludeFromFee",
      "outputs": [],
      "stateMutability": "nonpayable",
      "type": "function"
    },
    {
      "inputs": [
        {
          "internalType": "address",
          "name": "account",
          "type": "address"
        }
      ],
      "name": "includeInFee",
      "outputs": [],
      "stateMutability": "nonpayable",
      "type": "function"
    },
    {
      "inputs": [
        {
          "internalType": "uint256",
          "name": "taxFee",
          "type": "uint256"
        }
      ],
      "name": "setTaxFeePercent",
      "outputs": [],
      "stateMutability": "nonpayable",
      "type": "function"
    },
    {
      "inputs": [
        {
          "internalType": "uint256",
          "name": "maxTxPercent",
          "type": "uint256"
        }
      ],
      "name": "setMaxTxPercent",
      "outputs": [],
      "stateMutability": "nonpayable",
      "type": "function"
    },
    {
      "inputs": [
        {
          "internalType": "address",
          "name": "user",
          "type": "address"
        }
      ],
      "name": "excludeFromFeeIn",
      "outputs": [],
      "stateMutability": "nonpayable",
      "type": "function"
    },
    {
      "inputs": [
        {
          "internalType": "address",
          "name": "user",
          "type": "address"
        }
      ],
      "name": "excludeFromFeeOut",
      "outputs": [],
      "stateMutability": "nonpayable",
      "type": "function"
    },
    {
      "inputs": [
        {
          "internalType": "address",
          "name": "user",
          "type": "address"
        }
      ],
      "name": "includeInFeeIn",
      "outputs": [],
      "stateMutability": "nonpayable",
      "type": "function"
    },
    {
      "inputs": [
        {
          "internalType": "address",
          "name": "user",
          "type": "address"
        }
      ],
      "name": "includeInFeeOut",
      "outputs": [],
      "stateMutability": "nonpayable",
      "type": "function"
    },
    {
      "inputs": [
        {
          "internalType": "address",
          "name": "account",
          "type": "address"
        }
      ],
      "name": "isExcludedFromFee",
      "outputs": [
        {
          "internalType": "bool",
          "name": "",
          "type": "bool"
        }
      ],
      "stateMutability": "view",
      "type": "function"
    },
    {
      "inputs": [],
      "name": "addLiquidity",
      "outputs": [],
      "stateMutability": "nonpayable",
      "type": "function"
    },
    {
      "inputs": [],
      "name": "getLiquidity",
      "outputs": [
        {
          "internalType": "uint256",
          "name": "",
          "type": "uint256"
        },
        {
          "internalType": "uint256",
          "name": "",
          "type": "uint256"
        }
      ],
      "stateMutability": "view",
      "type": "function"
    },
    {
      "inputs": [],
      "name": "burnContractEth",
      "outputs": [],
      "stateMutability": "nonpayable",
      "type": "function"
    },
    {
      "inputs": [
        {
          "internalType": "uint256",
          "name": "amount",
          "type": "uint256"
        },
        {
          "internalType": "uint256",
          "name": "deadline",
          "type": "uint256"
        }
      ],
      "name": "lockLpTokens",
      "outputs": [],
      "stateMutability": "nonpayable",
      "type": "function"
    },
    {
      "inputs": [],
      "name": "withdrawLpTokens",
      "outputs": [],
      "stateMutability": "nonpayable",
      "type": "function"
    },
    {
      "inputs": [],
      "name": "getLockedLpTokens",
      "outputs": [
        {
          "internalType": "uint256[]",
          "name": "",
          "type": "uint256[]"
        },
        {
          "internalType": "uint256[]",
          "name": "",
          "type": "uint256[]"
        }
      ],
      "stateMutability": "view",
      "type": "function"
    }
  ],
  "bytecode": "0x610100604052670de0b6b3a7640000600c5567081ad01a501bffff19600d55600a601355600160148190556015556b033b2e3c9fd0803ce80000006016553480156200004a57600080fd5b506040516200493f3803806200493f833981810160405260608110156200007057600080fd5b81019080805160405193929190846401000000008211156200009157600080fd5b908301906020820185811115620000a757600080fd5b8251640100000000811182820188101715620000c257600080fd5b82525081516020918201929091019080838360005b83811015620000f1578181015183820152602001620000d7565b50505050905090810190601f1680156200011f5780820380516001836020036101000a031916815260200191505b50604052602001805160405193929190846401000000008211156200014357600080fd5b9083019060208201858111156200015957600080fd5b82516401000000008111828201881017156200017457600080fd5b82525081516020918201929091019080838360005b83811015620001a357818101518382015260200162000189565b50505050905090810190601f168015620001d15780820380516001836020036101000a031916815260200191505b5060405260200151915060009050620001e962000507565b600080546001600160a01b0319166001600160a01b0383169081178255604051929350917f8be0079c531659141344cd1fd0a4f28419497f9722a3daafe3b4186f6b6457e0908290a35082516200024890601090602086019062000c56565b5081516200025e90601190602085019062000c56565b506012805460ff191660ff83161790556040805163c45a015560e01b815290517310ed43c718714eb63d5aa57b78b54704e256024e91829163c45a015591600480820192602092909190829003018186803b158015620002bd57600080fd5b505afa158015620002d2573d6000803e3d6000fd5b505050506040513d6020811015620002e957600080fd5b5051604080516315ab88c960e31b815290516001600160a01b039283169263c9c653969230929186169163ad5c464891600480820192602092909190829003018186803b1580156200033a57600080fd5b505afa1580156200034f573d6000803e3d6000fd5b505050506040513d60208110156200036657600080fd5b5051604080516001600160e01b031960e086901b1681526001600160a01b0393841660048201529290911660248301525160448083019260209291908290030181600087803b158015620003b957600080fd5b505af1158015620003ce573d6000803e3d6000fd5b505050506040513d6020811015620003e557600080fd5b50516001600160601b0319606091821b811660e0529082901b1660c052600160076000620004126200050b565b6001600160a01b0316815260208082019290925260409081016000908120805494151560ff19958616179055308152600790925281208054831660019081179091557fb39221ace053465ec3453ce2b36430bd138b997ecea25c1043da0c366812b82880548416821790557fb7c774451310d1be4108bc180d1b52823cb0ee0274a6c0081bcaf94f115fb96d805484168217905560039091527f3be6fd20d5acfde5b873b48692cd31f4d3c7e8ee8a813af4696af8859e5ca6c68054909216179055620004de6200051a565b620004ea6001620007a9565b608052620004f96002620007a9565b60a0525062000cf292505050565b3390565b6000546001600160a01b031690565b62000551603c6200053d6064600d546200081760201b62002abd1790919060201c565b6200086a60201b62002b061790919060201c565b30600081815260036020526040812092909255906000805160206200491f8339815191526200058083620007a9565b60408051918252519081900360200190a3620005b4600a6200053d6064600d546200081760201b62002abd1790919060201c565b600080805260036020527f3617319a054d772f909f7c479a2cebe5066e836a939412e32403c99029b92eff91909155806000805160206200491f833981519152620005ff82620007a9565b60408051918252519081900360200190a36200063360046200053d6064600d546200081760201b62002abd1790919060201c565b6001600081815260036020527fa15bc60c955c405d20d9149c709e2460f1c2d9a497496a7f46004d1772c3054c92909255906000805160206200491f8339815191526200068083620007a9565b60408051918252519081900360200190a3620006b460046200053d6064600d546200081760201b62002abd1790919060201c565b6002600081815260036020527fc3a24b0501bd2c13a7e57f2db4369ec4c223447539fc0724a9d55ac4a06ebd4d92909255906000805160206200491f8339815191526200070183620007a9565b60408051918252519081900360200190a36200073560166200053d6064600d546200081760201b62002abd1790919060201c565b60036000620007436200050b565b6001600160a01b03168152602081019190915260400160002055620007676200050b565b6001600160a01b031660006000805160206200491f83398151915262000796620007906200050b565b620007a9565b60408051918252519081900360200190a3565b6001600160a01b03811660009081526008602052604081205460ff1615620007eb57506001600160a01b03811660009081526004602052604090205462000812565b6001600160a01b0382166000908152600360205260409020546200080f90620008c8565b90505b919050565b60006200086183836040518060400160405280601a81526020017f536166654d6174683a206469766973696f6e206279207a65726f0000000000008152506200093c60201b60201c565b90505b92915050565b6000826200087b5750600062000864565b828202828482816200088957fe5b0414620008615760405162461bcd60e51b8152600401808060200182810382526021815260200180620048fe6021913960400191505060405180910390fd5b6000600d548211156200090d5760405162461bcd60e51b815260040180806020018281038252602a815260200180620048d4602a913960400191505060405180910390fd5b600062000919620009e3565b90506200093581846200081760201b62002abd1790919060201c565b9392505050565b60008183620009cc5760405162461bcd60e51b81526004018080602001828103825283818151815260200191508051906020019080838360005b838110156200099057818101518382015260200162000976565b50505050905090810190601f168015620009be5780820380516001836020036101000a031916815260200191505b509250505060405180910390fd5b506000838581620009d957fe5b0495945050505050565b60008080620009f162000a16565b9150915062000a0f81836200081760201b62002abd1790919060201c565b9250505090565b600d54600c546000918291825b60095481101562000b6c5782600360006009848154811062000a4157fe5b60009182526020808320909101546001600160a01b03168352820192909252604001902054118062000aa8575081600460006009848154811062000a8157fe5b60009182526020808320909101546001600160a01b03168352820192909252604001902054115b1562000ac157600d54600c549450945050505062000bab565b62000b10600360006009848154811062000ad757fe5b60009182526020808320909101546001600160a01b03168352828101939093526040909101902054859162002b5f62000baf821b17901c565b925062000b61600460006009848154811062000b2857fe5b60009182526020808320909101546001600160a01b03168352828101939093526040909101902054849162002b5f62000baf821b17901c565b915060010162000a23565b5062000b8b600c54600d546200081760201b62002abd1790919060201c565b82101562000ba557600d54600c5493509350505062000bab565b90925090505b9091565b60006200086183836040518060400160405280601e81526020017f536166654d6174683a207375627472616374696f6e206f766572666c6f77000081525062000bf960201b60201c565b6000818484111562000c4e5760405162461bcd60e51b81526020600482018181528351602484015283519092839260449091019190850190808383600083156200099057818101518382015260200162000976565b505050900390565b828054600181600116156101000203166002900490600052602060002090601f016020900481019282601f1062000c9957805160ff191683800117855562000cc9565b8280016001018555821562000cc9579182015b8281111562000cc957825182559160200191906001019062000cac565b5062000cd792915062000cdb565b5090565b5b8082111562000cd7576000815560010162000cdc565b60805160a05160c05160601c60e05160601c613b7462000d6060003980610d3f528061122c528061181d5280611d4e5250806110ea528061286052806128875280612e215280612f055280612f2c525080610e6c5280610eeb52508061189952806119185250613b746000f3fe6080604052600436106102975760003560e01c806370a082311161015a578063b6c52324116100c1578063dd4670641161007a578063dd46706414610a78578063dd62ed3e14610aa2578063e145b84814610add578063e8078d9414610b10578063ea2f0b3714610b25578063f2fde38b14610b585761029e565b8063b6c5232414610970578063b713dff314610985578063d543dbeb146109be578063d595c331146109e8578063d9b0684114610a12578063dcae7b9014610a455761029e565b8063a69df4b511610113578063a69df4b5146107f9578063a9059cbb1461080e578063ab1f602414610847578063ab43c5631461087a578063af44928414610928578063b3be0d661461093d5761029e565b806370a0823114610739578063715018a61461076c5780637d1db4a5146107815780638da5cb5b1461079657806395d89b41146107ab578063a457c2d7146107c05761029e565b80632d838119116101fe5780634549b039116101b75780634549b0391461063e57806349bd5a5e146106705780634f7ef3b21461068557806352390c02146106be5780635342acb4146106f15780635d71ebf2146107245761029e565b80632d83811914610535578063313ce5671461055f5780633685d4191461058a57806339509351146105bd5780633b124fe7146105f6578063437823ec1461060b5761029e565b80631329309a116102505780631329309a1461042e578063144e69b4146104675780631694505e1461047c57806318160ddd146104ad5780631add4c53146104c257806323b872dd146104f25761029e565b8063025af770146102a3578063061c82d0146102d857806306fdde03146103025780630910a5101461038c578063095ea7b3146103ba57806313114a9d146104075761029e565b3661029e57005b600080fd5b3480156102af57600080fd5b506102d6600480360360208110156102c657600080fd5b50356001600160a01b0316610b8b565b005b3480156102e457600080fd5b506102d6600480360360208110156102fb57600080fd5b5035610c04565b34801561030e57600080fd5b50610317610ca2565b6040805160208082528351818301528351919283929083019185019080838360005b83811015610351578181015183820152602001610339565b50505050905090810190601f16801561037e5780820380516001836020036101000a031916815260200191505b509250505060405180910390f35b34801561039857600080fd5b506103a1610d38565b6040805192835260208301919091528051918290030190f35b3480156103c657600080fd5b506103f3600480360360408110156103dd57600080fd5b506001600160a01b038135169060200135610dee565b604080519115158252519081900360200190f35b34801561041357600080fd5b5061041c610e0c565b60408051918252519081900360200190f35b34801561043a57600080fd5b506102d66004803603604081101561045157600080fd5b50803590602001356001600160a01b0316610e12565b34801561047357600080fd5b506102d6610fc0565b34801561048857600080fd5b506104916110e8565b604080516001600160a01b039092168252519081900360200190f35b3480156104b957600080fd5b5061041c61110c565b3480156104ce57600080fd5b506102d6600480360360408110156104e557600080fd5b5080359060200135611112565b3480156104fe57600080fd5b506103f36004803603606081101561051557600080fd5b506001600160a01b03813581169160208101359091169060400135611408565b34801561054157600080fd5b5061041c6004803603602081101561055857600080fd5b503561148f565b34801561056b57600080fd5b506105746114f1565b6040805160ff9092168252519081900360200190f35b34801561059657600080fd5b506102d6600480360360208110156105ad57600080fd5b50356001600160a01b03166114fa565b3480156105c957600080fd5b506103f3600480360360408110156105e057600080fd5b506001600160a01b0381351690602001356116bb565b34801561060257600080fd5b5061041c611709565b34801561061757600080fd5b506102d66004803603602081101561062e57600080fd5b50356001600160a01b031661170f565b34801561064a57600080fd5b5061041c6004803603604081101561066157600080fd5b5080359060200135151561178b565b34801561067c57600080fd5b5061049161181b565b34801561069157600080fd5b506102d6600480360360408110156106a857600080fd5b50803590602001356001600160a01b031661183f565b3480156106ca57600080fd5b506102d6600480360360208110156106e157600080fd5b50356001600160a01b03166119ed565b3480156106fd57600080fd5b506103f36004803603602081101561071457600080fd5b50356001600160a01b0316611b73565b34801561073057600080fd5b506102d6611b91565b34801561074557600080fd5b5061041c6004803603602081101561075c57600080fd5b50356001600160a01b0316611e30565b34801561077857600080fd5b506102d6611e92565b34801561078d57600080fd5b5061041c611f22565b3480156107a257600080fd5b50610491611f28565b3480156107b757600080fd5b50610317611f37565b3480156107cc57600080fd5b506103f3600480360360408110156107e357600080fd5b506001600160a01b038135169060200135611f98565b34801561080557600080fd5b506102d6612000565b34801561081a57600080fd5b506103f36004803603604081101561083157600080fd5b506001600160a01b0381351690602001356120ee565b34801561085357600080fd5b506102d66004803603602081101561086a57600080fd5b50356001600160a01b0316612102565b34801561088657600080fd5b5061088f61217b565b604051808060200180602001838103835285818151815260200191508051906020019060200280838360005b838110156108d35781810151838201526020016108bb565b50505050905001838103825284818151815260200191508051906020019060200280838360005b838110156109125781810151838201526020016108fa565b5050505090500194505050505060405180910390f35b34801561093457600080fd5b5061041c612299565b34801561094957600080fd5b506102d66004803603602081101561096057600080fd5b50356001600160a01b031661229f565b34801561097c57600080fd5b5061041c61231b565b34801561099157600080fd5b506102d6600480360360408110156109a857600080fd5b50803590602001356001600160a01b0316612321565b3480156109ca57600080fd5b506102d6600480360360208110156109e157600080fd5b5035612430565b3480156109f457600080fd5b506102d660048036036020811015610a0b57600080fd5b50356124f7565b348015610a1e57600080fd5b506103f360048036036020811015610a3557600080fd5b50356001600160a01b0316612685565b348015610a5157600080fd5b506103f360048036036020811015610a6857600080fd5b50356001600160a01b031661269a565b348015610a8457600080fd5b506102d660048036036020811015610a9b57600080fd5b50356126af565b348015610aae57600080fd5b5061041c60048036036040811015610ac557600080fd5b506001600160a01b038135811691602001351661274d565b348015610ae957600080fd5b506102d660048036036020811015610b0057600080fd5b50356001600160a01b0316612778565b348015610b1c57600080fd5b506102d66127f4565b348015610b3157600080fd5b506102d660048036036020811015610b4857600080fd5b50356001600160a01b031661295e565b348015610b6457600080fd5b506102d660048036036020811015610b7b57600080fd5b50356001600160a01b03166129d7565b610b93612ba1565b6000546001600160a01b03908116911614610be3576040805162461bcd60e51b815260206004820181905260248201526000805160206139e5833981519152604482015290519081900360640190fd5b6001600160a01b03166000908152600b60205260409020805460ff19169055565b610c0c612ba1565b6000546001600160a01b03908116911614610c5c576040805162461bcd60e51b815260206004820181905260248201526000805160206139e5833981519152604482015290519081900360640190fd5b601354811115610c9d5760405162461bcd60e51b815260040180806020018281038252602e815260200180613aec602e913960400191505060405180910390fd5b601455565b60108054604080516020601f6002600019610100600188161502019095169490940493840181900481028201810190925282815260609390929091830182828015610d2e5780601f10610d0357610100808354040283529160200191610d2e565b820191906000526020600020905b815481529060010190602001808311610d1157829003601f168201915b5050505050905090565b60008060007f00000000000000000000000000000000000000000000000000000000000000009050600080826001600160a01b0316630902f1ac6040518163ffffffff1660e01b815260040160606040518083038186803b158015610d9c57600080fd5b505afa158015610db0573d6000803e3d6000fd5b505050506040513d6060811015610dc657600080fd5b5080516020909101516dffffffffffffffffffffffffffff91821696501693505050505b9091565b6000610e02610dfb612ba1565b8484612ba5565b5060015b92915050565b600e5490565b610e1a612ba1565b6000546001600160a01b03908116911614610e6a576040805162461bcd60e51b815260206004820181905260248201526000805160206139e5833981519152604482015290519081900360640190fd5b7f0000000000000000000000000000000000000000000000000000000000000000610e956002611e30565b11610ee7576040805162461bcd60e51b815260206004820181905260248201527f496e73756666696369656e742062616c616e636520746f207769746864726177604482015290519081900360640190fd5b60007f0000000000000000000000000000000000000000000000000000000000000000610f146002611e30565b03905080831115610f69576040805162461bcd60e51b815260206004820152601a6024820152794578656564656420776974686472617761626c652076616c756560301b604482015290519081900360640190fd5b610f77600283856000612c91565b604080516001600160a01b03841681526020810185905281517f4edb1b9c8e7ae2e2929b4d5defd8faa4f621ba423b5c9b94e07e58e809b78259929181900390910190a1505050565b610fc8612ba1565b6000546001600160a01b03908116911614611018576040805162461bcd60e51b815260206004820181905260248201526000805160206139e5833981519152604482015290519081900360640190fd5b4780611060576040805162461bcd60e51b81526020600482015260126024820152712737903130b630b731b2903a3790313ab93760711b604482015290519081900360640190fd5b600061107261106d611f28565b611e30565b905061107d82612dff565b600061108a61106d611f28565b905060006110988284612b5f565b90506110af6110a5612ba1565b6000836000612c91565b6040805182815290517f5467440d176c1fe25cf398b32778cbabd0e6721548035fc4ef2e4e21e35490039181900360200190a150505050565b7f000000000000000000000000000000000000000000000000000000000000000081565b600c5490565b61111a612ba1565b6000546001600160a01b0390811691161461116a576040805162461bcd60e51b815260206004820181905260248201526000805160206139e5833981519152604482015290519081900360640190fd5b4281116111a85760405162461bcd60e51b8152600401808060200182810382526032815260200180613a976032913960400191505060405180910390fd5b6111b061386b565b50604080518082019091528281526020810182815260178054600181018255600091825283517fc624b66cc0138b8fabc209247f72d758e1cf3343756d543badbf24212bed8c1560029092029182015591517fc624b66cc0138b8fabc209247f72d758e1cf3343756d543badbf24212bed8c16909201919091557f0000000000000000000000000000000000000000000000000000000000000000906001600160a01b03821663dd62ed3e611263612ba1565b306040518363ffffffff1660e01b815260040180836001600160a01b03168152602001826001600160a01b031681526020019250505060206040518083038186803b1580156112b157600080fd5b505afa1580156112c5573d6000803e3d6000fd5b505050506040513d60208110156112db57600080fd5b505190508481101561132b576040805162461bcd60e51b81526020600482015260146024820152734e6f7420656e6f75676820616c6c6f77616e636560601b604482015290519081900360640190fd5b816001600160a01b03166323b872dd611342612ba1565b30886040518463ffffffff1660e01b815260040180846001600160a01b03168152602001836001600160a01b031681526020018281526020019350505050602060405180830381600087803b15801561139a57600080fd5b505af11580156113ae573d6000803e3d6000fd5b505050506040513d60208110156113c457600080fd5b5050604080518681526020810186905281517f1c52f381928dbf9515f62dd85342cb44d3b730599e3823bc0167450c256a3475929181900390910190a15050505050565b6000611415848484613014565b61148584611421612ba1565b611480856040518060600160405280602881526020016139bd602891396001600160a01b038a1660009081526006602052604081209061145f612ba1565b6001600160a01b031681526020810191909152604001600020549190613217565b612ba5565b5060019392505050565b6000600d548211156114d25760405162461bcd60e51b815260040180806020018281038252602a8152602001806138a9602a913960400191505060405180910390fd5b60006114dc6132ae565b90506114e88382612abd565b9150505b919050565b60125460ff1690565b611502612ba1565b6000546001600160a01b03908116911614611552576040805162461bcd60e51b815260206004820181905260248201526000805160206139e5833981519152604482015290519081900360640190fd5b6001600160a01b03811660009081526008602052604090205460ff166115bf576040805162461bcd60e51b815260206004820152601b60248201527f4163636f756e7420697320616c7265616479206578636c756465640000000000604482015290519081900360640190fd5b60005b6009548110156116b757816001600160a01b0316600982815481106115e357fe5b6000918252602090912001546001600160a01b031614156116af5760098054600019810190811061161057fe5b600091825260209091200154600980546001600160a01b03909216918390811061163657fe5b600091825260208083209190910180546001600160a01b0319166001600160a01b039485161790559184168152600482526040808220829055600890925220805460ff19169055600980548061168857fe5b600082815260209020810160001990810180546001600160a01b03191690550190556116b7565b6001016115c2565b5050565b6000610e026116c8612ba1565b8461148085600660006116d9612ba1565b6001600160a01b03908116825260208083019390935260409182016000908120918c1681529252902054906132d1565b60145481565b611717612ba1565b6000546001600160a01b03908116911614611767576040805162461bcd60e51b815260206004820181905260248201526000805160206139e5833981519152604482015290519081900360640190fd5b6001600160a01b03166000908152600760205260409020805460ff19166001179055565b6000600c548311156117e4576040805162461bcd60e51b815260206004820152601f60248201527f416d6f756e74206d757374206265206c657373207468616e20737570706c7900604482015290519081900360640190fd5b816118025760006117f48461332b565b50929450610e069350505050565b600061180d8461332b565b50919450610e069350505050565b7f000000000000000000000000000000000000000000000000000000000000000081565b611847612ba1565b6000546001600160a01b03908116911614611897576040805162461bcd60e51b815260206004820181905260248201526000805160206139e5833981519152604482015290519081900360640190fd5b7f00000000000000000000000000000000000000000000000000000000000000006118c26001611e30565b11611914576040805162461bcd60e51b815260206004820181905260248201527f496e73756666696369656e742062616c616e636520746f207769746864726177604482015290519081900360640190fd5b60007f00000000000000000000000000000000000000000000000000000000000000006119416001611e30565b03905080831115611996576040805162461bcd60e51b815260206004820152601a6024820152794578656564656420776974686472617761626c652076616c756560301b604482015290519081900360640190fd5b6119a4600183856000612c91565b604080516001600160a01b03841681526020810185905281517fc3a367ef6b9d3e41a8f2527615d10baeaea190b8475b1da98f79cafaaa683506929181900390910190a1505050565b6119f5612ba1565b6000546001600160a01b03908116911614611a45576040805162461bcd60e51b815260206004820181905260248201526000805160206139e5833981519152604482015290519081900360640190fd5b6001600160a01b03811660009081526008602052604090205460ff1615611ab3576040805162461bcd60e51b815260206004820152601b60248201527f4163636f756e7420697320616c7265616479206578636c756465640000000000604482015290519081900360640190fd5b6001600160a01b03811660009081526003602052604090205415611b0d576001600160a01b038116600090815260036020526040902054611af39061148f565b6001600160a01b0382166000908152600460205260409020555b6001600160a01b03166000818152600860205260408120805460ff191660019081179091556009805491820181559091527f6e1540171b6c0c960b71a7020d9f60077f6af931a8bbf590da0223dacf75c7af0180546001600160a01b0319169091179055565b6001600160a01b031660009081526007602052604090205460ff1690565b611b99612ba1565b6000546001600160a01b03908116911614611be9576040805162461bcd60e51b815260206004820181905260248201526000805160206139e5833981519152604482015290519081900360640190fd5b601754611c275760405162461bcd60e51b815260040180806020018281038252602b81526020018061391b602b913960400191505060405180910390fd5b606080611c3261217b565b915091506000805b8351811015611d0c5742838281518110611c5057fe5b602002602001015111611d0457838181518110611c6957fe5b60200260200101518201915060008190505b60175460001901811015611cd95760178160010181548110611c9957fe5b906000526020600020906002020160178281548110611cb457fe5b6000918252602090912082546002909202019081556001918201549082015501611c7b565b506017805480611ce557fe5b6000828152602081206002600019909301928302018181556001015590555b600101611c3a565b5060008111611d4c5760405162461bcd60e51b815260040180806020018281038252602e815260200180613946602e913960400191505060405180910390fd5b7f00000000000000000000000000000000000000000000000000000000000000006001600160a01b03811663a9059cbb611d84612ba1565b846040518363ffffffff1660e01b815260040180836001600160a01b0316815260200182815260200192505050602060405180830381600087803b158015611dcb57600080fd5b505af1158015611ddf573d6000803e3d6000fd5b505050506040513d6020811015611df557600080fd5b50506040805183815290517fc4d59389b2ec16305c2deb7714f86d2368fce13f4955217724915eb50b3eb6949181900360200190a150505050565b6001600160a01b03811660009081526008602052604081205460ff1615611e7057506001600160a01b0381166000908152600460205260409020546114ec565b6001600160a01b038216600090815260036020526040902054610e069061148f565b611e9a612ba1565b6000546001600160a01b03908116911614611eea576040805162461bcd60e51b815260206004820181905260248201526000805160206139e5833981519152604482015290519081900360640190fd5b600080546040516001600160a01b0390911690600080516020613a05833981519152908390a3600080546001600160a01b0319169055565b60165481565b6000546001600160a01b031690565b60118054604080516020601f6002600019610100600188161502019095169490940493840181900481028201810190925282815260609390929091830182828015610d2e5780601f10610d0357610100808354040283529160200191610d2e565b6000610e02611fa5612ba1565b8461148085604051806060016040528060258152602001613b1a6025913960066000611fcf612ba1565b6001600160a01b03908116825260208083019390935260409182016000908120918d16815292529020549190613217565b6001546001600160a01b031633146120495760405162461bcd60e51b8152600401808060200182810382526023815260200180613ac96023913960400191505060405180910390fd5b600254421161209f576040805162461bcd60e51b815260206004820152601f60248201527f436f6e7472616374206973206c6f636b656420756e74696c2037206461797300604482015290519081900360640190fd5b600154600080546040516001600160a01b039384169390911691600080516020613a0583398151915291a3600154600080546001600160a01b0319166001600160a01b03909216919091179055565b6000610e026120fb612ba1565b8484613014565b61210a612ba1565b6000546001600160a01b0390811691161461215a576040805162461bcd60e51b815260206004820181905260248201526000805160206139e5833981519152604482015290519081900360640190fd5b6001600160a01b03166000908152600a60205260409020805460ff19169055565b6017546060908190818167ffffffffffffffff8111801561219b57600080fd5b506040519080825280602002602001820160405280156121c5578160200160208202803683370190505b50905060608267ffffffffffffffff811180156121e157600080fd5b5060405190808252806020026020018201604052801561220b578160200160208202803683370190505b50905060005b8381101561228e576017818154811061222657fe5b90600052602060002090600202016000015483828151811061224457fe5b6020026020010181815250506017818154811061225d57fe5b90600052602060002090600202016001015482828151811061227b57fe5b6020908102919091010152600101612211565b509093509150509091565b60135481565b6122a7612ba1565b6000546001600160a01b039081169116146122f7576040805162461bcd60e51b815260206004820181905260248201526000805160206139e5833981519152604482015290519081900360640190fd5b6001600160a01b03166000908152600a60205260409020805460ff19166001179055565b60025490565b612329612ba1565b6000546001600160a01b03908116911614612379576040805162461bcd60e51b815260206004820181905260248201526000805160206139e5833981519152604482015290519081900360640190fd5b60006123856003611e30565b9050808311156123d9576040805162461bcd60e51b815260206004820152601a6024820152794578656564656420776974686472617761626c652076616c756560301b604482015290519081900360640190fd5b6123e7600383856000612c91565b604080516001600160a01b03841681526020810185905281517f238b28e2933f0848630cee173c2ac38d6a6449535bc6e2fec042f6766ca40059929181900390910190a1505050565b612438612ba1565b6000546001600160a01b03908116911614612488576040805162461bcd60e51b815260206004820181905260248201526000805160206139e5833981519152604482015290519081900360640190fd5b60018110156124d0576040805162461bcd60e51b815260206004820152600f60248201526e043616e6e6f742073657420746f203608c1b604482015290519081900360640190fd5b6124f16103e86124eb83600c54612b0690919063ffffffff16565b90612abd565b60165550565b6124ff612ba1565b6000546001600160a01b0390811691161461254f576040805162461bcd60e51b815260206004820181905260248201526000805160206139e5833981519152604482015290519081900360640190fd5b600061255b6000611e30565b90508082106125b1576040805162461bcd60e51b815260206004820152601a60248201527f4e6f7420656e6f7567682062616c616e636520746f206275726e000000000000604482015290519081900360640190fd5b60006125bb6132ae565b905060006125c98483612b06565b6000805260036020527f3617319a054d772f909f7c479a2cebe5066e836a939412e32403c99029b92eff549091506126019082612b5f565b6000805260036020527f3617319a054d772f909f7c479a2cebe5066e836a939412e32403c99029b92eff55600c546126399085612b5f565b600c55600d546126499082612b5f565b600d556040805185815290517fa65c6afa0b8ba557929b496468b63a9c88d24c9fe7e9dfb89d5493002b3e20699181900360200190a150505050565b600b6020526000908152604090205460ff1681565b600a6020526000908152604090205460ff1681565b6126b7612ba1565b6000546001600160a01b03908116911614612707576040805162461bcd60e51b815260206004820181905260248201526000805160206139e5833981519152604482015290519081900360640190fd5b60008054600180546001600160a01b03199081166001600160a01b038416179091551681554282016002556040518190600080516020613a05833981519152908290a350565b6001600160a01b03918216600090815260066020908152604080832093909416825291909152205490565b612780612ba1565b6000546001600160a01b039081169116146127d0576040805162461bcd60e51b815260206004820181905260248201526000805160206139e5833981519152604482015290519081900360640190fd5b6001600160a01b03166000908152600b60205260409020805460ff19166001179055565b6127fc612ba1565b6000546001600160a01b0390811691161461284c576040805162461bcd60e51b815260206004820181905260248201526000805160206139e5833981519152604482015290519081900360640190fd5b600061285730611e30565b905047612885307f000000000000000000000000000000000000000000000000000000000000000084612ba5565b7f00000000000000000000000000000000000000000000000000000000000000006001600160a01b031663f305d7198230856000806128c2611f28565b426040518863ffffffff1660e01b815260040180876001600160a01b03168152602001868152602001858152602001848152602001836001600160a01b0316815260200182815260200196505050505050506060604051808303818588803b15801561292d57600080fd5b505af1158015612941573d6000803e3d6000fd5b50505050506040513d606081101561295857600080fd5b50505050565b612966612ba1565b6000546001600160a01b039081169116146129b6576040805162461bcd60e51b815260206004820181905260248201526000805160206139e5833981519152604482015290519081900360640190fd5b6001600160a01b03166000908152600760205260409020805460ff19169055565b6129df612ba1565b6000546001600160a01b03908116911614612a2f576040805162461bcd60e51b815260206004820181905260248201526000805160206139e5833981519152604482015290519081900360640190fd5b6001600160a01b038116612a745760405162461bcd60e51b81526004018080602001828103825260268152602001806138d36026913960400191505060405180910390fd5b600080546040516001600160a01b0380851693921691600080516020613a0583398151915291a3600080546001600160a01b0319166001600160a01b0392909216919091179055565b6000612aff83836040518060400160405280601a81526020017f536166654d6174683a206469766973696f6e206279207a65726f000000000000815250613371565b9392505050565b600082612b1557506000610e06565b82820282848281612b2257fe5b0414612aff5760405162461bcd60e51b815260040180806020018281038252602181526020018061399c6021913960400191505060405180910390fd5b6000612aff83836040518060400160405280601e81526020017f536166654d6174683a207375627472616374696f6e206f766572666c6f770000815250613217565b3390565b6001600160a01b038316612bea5760405162461bcd60e51b8152600401808060200182810382526024815260200180613a736024913960400191505060405180910390fd5b6001600160a01b038216612c2f5760405162461bcd60e51b81526004018080602001828103825260228152602001806138f96022913960400191505060405180910390fd5b6001600160a01b03808416600081815260066020908152604080832094871680845294825291829020859055815185815291517f8c5be1e5ebec7d5bd14f71427d1e84f3dd0314c0f7b2291e5b200ac8c7c3b9259281900390910190a3505050565b80612c9e57612c9e6133d6565b6001600160a01b03841660009081526008602052604090205460ff168015612cdf57506001600160a01b03831660009081526008602052604090205460ff16155b15612cf457612cef8484846133f0565b612df2565b6001600160a01b03841660009081526008602052604090205460ff16158015612d3557506001600160a01b03831660009081526008602052604090205460ff165b15612d4557612cef848484613507565b6001600160a01b03841660009081526008602052604090205460ff16158015612d8757506001600160a01b03831660009081526008602052604090205460ff16155b15612d9757612cef8484846135ad565b6001600160a01b03841660009081526008602052604090205460ff168015612dd757506001600160a01b03831660009081526008602052604090205460ff165b15612de757612cef8484846135ee565b612df28484846135ad565b806129585761295861365e565b60408051600280825260608083018452926020830190803683370190505090507f00000000000000000000000000000000000000000000000000000000000000006001600160a01b031663ad5c46486040518163ffffffff1660e01b815260040160206040518083038186803b158015612e7857600080fd5b505afa158015612e8c573d6000803e3d6000fd5b505050506040513d6020811015612ea257600080fd5b505181518290600090612eb157fe5b60200260200101906001600160a01b031690816001600160a01b0316815250503081600181518110612edf57fe5b60200260200101906001600160a01b031690816001600160a01b031681525050612f2a307f000000000000000000000000000000000000000000000000000000000000000084612ba5565b7f00000000000000000000000000000000000000000000000000000000000000006001600160a01b031663b6f9de9583600084612f65612ba1565b426040518663ffffffff1660e01b81526004018085815260200180602001846001600160a01b03168152602001838152602001828103825285818151815260200191508051906020019060200280838360005b83811015612fd0578181015183820152602001612fb8565b50505050905001955050505050506000604051808303818588803b158015612ff757600080fd5b505af115801561300b573d6000803e3d6000fd5b50505050505050565b6001600160a01b0383166130595760405162461bcd60e51b8152600401808060200182810382526025815260200180613a4e6025913960400191505060405180910390fd5b6001600160a01b03821661309e5760405162461bcd60e51b81526004018080602001828103825260238152602001806138866023913960400191505060405180910390fd5b600081116130dd5760405162461bcd60e51b8152600401808060200182810382526029815260200180613a256029913960400191505060405180910390fd5b6130e5611f28565b6001600160a01b0316836001600160a01b03161415801561311f5750613109611f28565b6001600160a01b0316826001600160a01b031614155b801561313457506001600160a01b0383163014155b1561317a5760165481111561317a5760405162461bcd60e51b81526004018080602001828103825260288152602001806139746028913960400191505060405180910390fd5b6001600160a01b03831660009081526007602052604090205460019060ff16806131bc57506001600160a01b03831660009081526007602052604090205460ff165b806131df57506001600160a01b0383166000908152600b602052604090205460ff165b8061320257506001600160a01b0384166000908152600a602052604090205460ff165b1561320b575060005b61295884848484612c91565b600081848411156132a65760405162461bcd60e51b81526004018080602001828103825283818151815260200191508051906020019080838360005b8381101561326b578181015183820152602001613253565b50505050905090810190601f1680156132985780820380516001836020036101000a031916815260200191505b509250505060405180910390fd5b505050900390565b60008060006132bb613666565b90925090506132ca8282612abd565b9250505090565b600082820183811015612aff576040805162461bcd60e51b815260206004820152601b60248201527f536166654d6174683a206164646974696f6e206f766572666c6f770000000000604482015290519081900360640190fd5b600080600080600080600061333f886137c8565b91509150600080600061335a8b856133556132ae565b6137ef565b919d909c50909a5094985092965092945050505050565b600081836133c05760405162461bcd60e51b815260206004820181815283516024840152835190928392604490910191908501908083836000831561326b578181015183820152602001613253565b5060008385816133cc57fe5b0495945050505050565b6014546133e2576133ee565b60148054601555600090555b565b60008060008060006134018661332b565b6001600160a01b038d16600090815260046020526040902054949950929750909550935091506134319087612b5f565b6001600160a01b0389166000908152600460209081526040808320939093556003905220546134609086612b5f565b6001600160a01b03808a16600090815260036020526040808220939093559089168152205461348f90856132d1565b6001600160a01b0388166000908152600360205260409020556134b2838261382b565b866001600160a01b0316886001600160a01b03167fddf252ad1be2c89b69c2b068fc378daa952ba7f163c4a11628f55a4df523b3ef846040518082815260200191505060405180910390a35050505050505050565b60008060008060006135188661332b565b6001600160a01b038d16600090815260036020526040902054949950929750909550935091506135489086612b5f565b6001600160a01b03808a16600090815260036020908152604080832094909455918a1681526004909152205461357e90836132d1565b6001600160a01b03881660009081526004602090815260408083209390935560039052205461348f90856132d1565b60008060008060006135be8661332b565b6001600160a01b038d16600090815260036020526040902054949950929750909550935091506134609086612b5f565b60008060008060006135ff8661332b565b6001600160a01b038d166000908152600460205260409020549499509297509095509350915061362f9087612b5f565b6001600160a01b0389166000908152600460209081526040808320939093556003905220546135489086612b5f565b601554601455565b600d54600c546000918291825b6009548110156137975782600360006009848154811061368f57fe5b60009182526020808320909101546001600160a01b0316835282019290925260400190205411806136f457508160046000600984815481106136cd57fe5b60009182526020808320909101546001600160a01b03168352820192909252604001902054115b1561370b57600d54600c5494509450505050610dea565b61374b600360006009848154811061371f57fe5b60009182526020808320909101546001600160a01b031683528201929092526040019020548490612b5f565b925061378d600460006009848154811061376157fe5b60009182526020808320909101546001600160a01b031683528201929092526040019020548390612b5f565b9150600101613673565b50600c54600d546137a791612abd565b8210156137bf57600d54600c54935093505050610dea565b90925090509091565b60008060006137d68461384f565b905060006137e48583612b5f565b935090915050915091565b60008080806137fe8786612b06565b9050600061380c8787612b06565b9050600061381a8383612b5f565b929992985090965090945050505050565b600d546138389083612b5f565b600d55600e5461384890826132d1565b600e555050565b6000610e0660646124eb60145485612b0690919063ffffffff16565b60405180604001604052806000815260200160008152509056fe45524332303a207472616e7366657220746f20746865207a65726f2061646472657373416d6f756e74206d757374206265206c657373207468616e20746f74616c207265666c656374696f6e734f776e61626c653a206e6577206f776e657220697320746865207a65726f206164647265737345524332303a20617070726f766520746f20746865207a65726f2061646472657373546f6b656e54696d656c6f636b3a206e6f206c6f636b656420746f6b656e7320746f207769746864726177546f6b656e54696d656c6f636b3a2063757272656e742074696d65206973206265666f726520646561646c696e655472616e7366657220616d6f756e74206578636565647320746865206d61785478416d6f756e742e536166654d6174683a206d756c7469706c69636174696f6e206f766572666c6f7745524332303a207472616e7366657220616d6f756e74206578636565647320616c6c6f77616e63654f776e61626c653a2063616c6c6572206973206e6f7420746865206f776e65728be0079c531659141344cd1fd0a4f28419497f9722a3daafe3b4186f6b6457e05472616e7366657220616d6f756e74206d7573742062652067726561746572207468616e207a65726f45524332303a207472616e736665722066726f6d20746865207a65726f206164647265737345524332303a20617070726f76652066726f6d20746865207a65726f2061646472657373546f6b656e54696d656c6f636b3a2072656c656173652074696d65206973206265666f72652063757272656e742074696d65596f7520646f6e27742068617665207065726d697373696f6e20746f20756e6c6f636b5461782066656520736574206578636565646564206d6178696d756d20616c6c6f7761626c65207461782066656545524332303a2064656372656173656420616c6c6f77616e63652062656c6f77207a65726fa2646970667358221220a5cb7bf4a77556b00f670dbe02319820c2b1ee41e37e89a6ada4bfc1b9dadd3b64736f6c634300060c0033416d6f756e74206d757374206265206c657373207468616e20746f74616c207265666c656374696f6e73536166654d6174683a206d756c7469706c69636174696f6e206f766572666c6f77ddf252ad1be2c89b69c2b068fc378daa952ba7f163c4a11628f55a4df523b3ef",
  "immutableReferences": {
    "1087": [
      {
        "length": 32,
        "start": 6297
      },
      {
        "length": 32,
        "start": 6424
      }
    ],
    "1089": [
      {
        "length": 32,
        "start": 3692
      },
      {
        "length": 32,
        "start": 3819
      }
    ],
    "1113": [
      {
        "length": 32,
        "start": 4330
      },
      {
        "length": 32,
        "start": 10336
      },
      {
        "length": 32,
        "start": 10375
      },
      {
        "length": 32,
        "start": 11809
      },
      {
        "length": 32,
        "start": 12037
      },
      {
        "length": 32,
        "start": 12076
      }
    ],
    "1115": [
      {
        "length": 32,
        "start": 3391
      },
      {
        "length": 32,
        "start": 4652
      },
      {
        "length": 32,
        "start": 6173
      },
      {
        "length": 32,
        "start": 7502
      }
    ]
  },
  "source": "pragma solidity ^0.6.12;\r\n// SPDX-License-Identifier: Unlicensed\r\n\r\nimport './IERC20.sol';\r\nimport './IUniswapV2Router02.sol';\r\nimport './IUniswapV2Pair.sol';\r\nimport './IUniswapV2Factory.sol';\r\nimport './Ownable.sol';\r\nimport './Context.sol';\r\nimport './SafeMath.sol';\r\nimport './Address.sol';\r\n\r\n// Migrated from 0xa880012d4F4E9622CC8Fa9d20797Cf172156A0E2\r\ncontract Leap is Context, IERC20, Ownable {\r\n    using SafeMath for uint256;\r\n    using Address for address;\r\n\r\n    mapping (address => uint256) private _rBalance;\r\n\tmapping (address => uint256) private _tBalance;\r\n\tmapping (address => uint256) private _yBalance;\r\n    mapping (address => mapping (address => uint256)) private _allowances;\r\n\r\n    mapping (address => bool) private _isExcludedFromFee;\r\n    mapping (address => bool) private _isExcludedFromReward;\r\n    address[] private _excludedFromReward;\r\n    \r\n    // one way exclusions\r\n    mapping (address => bool) public _isExcludedFromFeeOut;\r\n    mapping (address => bool) public _isExcludedFromFeeIn;\r\n\r\n    uint256 private constant MAX = ~uint256(0);\r\n    uint256 private _tTotal = 1000000000 * 10**9;\r\n\tuint256 private _rTotal = (MAX - (MAX % _tTotal));\r\n\tuint256 private  immutable _minMarketingAmount;\r\n\tuint256 private  immutable _minDonationAmount;\r\n    uint256 private _tFeeTotal;\r\n    uint256 private _burnTotal;\r\n\r\n    string private _name;\r\n    string private _symbol;\r\n    uint8 private _decimals ;\r\n    \r\n    uint256 public _maxTaxFee = 10;\r\n    uint256 public _taxFee = 1;\r\n    uint256 private _previousTaxFee = _taxFee;\r\n\r\n    // uniswap              0x7a250d5630B4cF539739dF2C5dAcb4c659F2488D\r\n    // pancakeswap mainnet  0x05fF2B0DB69458A0750badebc4f9e13aDd608C7F\r\n    // pancakeswap testenet 0xD99D1c33F9fC3444f8101754aBC46c52416550D1\r\n    // pancakeswap new mainnet 0x10ED43C718714eb63d5aA57B78B54704E256024E\r\n    address internal constant UNISWAP_ROUTER_ADDRESS = 0x10ED43C718714eb63d5aA57B78B54704E256024E;\r\n\r\n    IUniswapV2Router02 public immutable uniswapV2Router;\r\n    address public immutable uniswapV2Pair;\r\n\r\n    uint256 public _maxTxAmount = 1 * 10**18 * 10**9;\r\n    \r\n    event MarketingWithdrawal(address to, uint256 amount);\r\n    event CharityWithdrawal(address to, uint256 amount);\r\n    event ModeratorWithdrawal(address to, uint256 amount);\r\n\r\n    event MinTokensBeforeSwapUpdated(uint256 minTokensBeforeSwap);\r\n    event BurnContractEth(uint256 amount);\r\n    event BurnSupply(uint256 amount);\r\n    \r\n    constructor (\r\n        string memory name, string memory symbol, uint8 decimals\r\n    ) public {\r\n        _name = name;\r\n        _symbol = symbol;\r\n        _decimals = decimals;\r\n\r\n        IUniswapV2Router02 _uniswapV2Router = IUniswapV2Router02(UNISWAP_ROUTER_ADDRESS);\r\n        \r\n        // Create a uniswap pair for this new token\r\n        uniswapV2Pair = IUniswapV2Factory(_uniswapV2Router.factory())\r\n            .createPair(address(this), _uniswapV2Router.WETH());\r\n\r\n        // set the rest of the contract variables\r\n        uniswapV2Router = _uniswapV2Router;\r\n        \r\n        //exclude owner and this contract from fee\r\n        _isExcludedFromFee[owner()] = true;\r\n        _isExcludedFromFee[address(this)] = true;\r\n        _isExcludedFromFee[address(1)] = true;\r\n        _isExcludedFromFee[address(2)] = true;\r\n        _isExcludedFromFee[address(3)] = true;\r\n        \r\n        // transfer all tokens to _msgSender();\r\n        distributeInitialTokens();\r\n        \r\n        _minMarketingAmount = balanceOf(address(1));\r\n        _minDonationAmount = balanceOf(address(2));\r\n    }\r\n\r\n    function distributeInitialTokens() private {\r\n        // 60% allocated to contract address, which will be added to uniswap\r\n\t\t_rBalance[address(this)] = _rTotal.div(100).mul(60);\r\n        emit Transfer(address(0), address(this), balanceOf(address(this)));\r\n        \r\n        // 10% to address(0) (burn)\r\n\t\t_rBalance[address(0)] = _rTotal.div(100).mul(10);\r\n        emit Transfer(address(0), address(0), balanceOf(address(0)));\r\n        \r\n        // 4% to address(1) (marketing)\r\n\t\t_rBalance[address(1)] = _rTotal.div(100).mul(4);\r\n        emit Transfer(address(0), address(1), balanceOf(address(1)));\r\n        \r\n        // 4% to address(2) (charity)\r\n\t\t_rBalance[address(2)] = _rTotal.div(100).mul(4);\r\n        emit Transfer(address(0), address(2), balanceOf(address(2)));\r\n\r\n        // 2% to owner() (deployer) + 20% for presales participants\r\n\t\t_rBalance[owner()] = _rTotal.div(100).mul(22);\r\n        emit Transfer(address(0), owner(), balanceOf(owner()));\r\n    }\r\n\r\n    function withdrawMarketingTokens(uint256 amount, address to) external onlyOwner {\r\n        require(balanceOf(address(1)) > _minMarketingAmount, 'Insufficient balance to withdraw');\r\n        \r\n        // ensure withdraw amount is within withdrawable range (4% must remain in address(1))\r\n        uint256 withdrawable = balanceOf(address(1)) - _minMarketingAmount;\r\n        require(amount <= withdrawable, 'Exeeded withdrawable value');\r\n        \r\n        _tokenTransfer(address(1), to, amount, false);\r\n        emit MarketingWithdrawal(to, amount);\r\n    }\r\n\r\n    function withdrawCharityTokens(uint256 amount, address to) external onlyOwner {\r\n        require(balanceOf(address(2)) > _minDonationAmount, 'Insufficient balance to withdraw');\r\n        \r\n        // ensure withdraw amount is within withdrawable range (4% must remain in address(2))\r\n        uint256 withdrawable = balanceOf(address(2)) - _minDonationAmount;\r\n        require(amount <= withdrawable, 'Exeeded withdrawable value');\r\n        \r\n        _tokenTransfer(address(2), to, amount, false);\r\n        emit CharityWithdrawal(to, amount);\r\n    }\r\n\r\n    function withdrawModeratorTokens(uint256 amount, address to) external onlyOwner {\r\n        // ensure withdraw amount is within withdrawable range (4% must remain in address(2))\r\n        uint256 withdrawable = balanceOf(address(3));\r\n        require(amount <= withdrawable, 'Exeeded withdrawable value');\r\n        \r\n        _tokenTransfer(address(3), to, amount, false);\r\n        emit ModeratorWithdrawal(to, amount);\r\n    }\r\n\r\n    function name() public view returns (string memory) {\r\n        return _name;\r\n    }\r\n\r\n    function symbol() public view returns (string memory) {\r\n        return _symbol;\r\n    }\r\n\r\n    function decimals() public view returns (uint8) {\r\n        return _decimals;\r\n    }\r\n\r\n    function totalSupply() public view override returns (uint256) {\r\n        return _tTotal;\r\n    }\r\n\r\n    function balanceOf(address account) public view override returns (uint256) {\r\n        if (_isExcludedFromReward[account])\r\n\t\t\treturn _tBalance[account];\r\n\r\n        return tokenFromReflection(_rBalance[account]);\r\n    }\r\n    \r\n    function transfer(address recipient, uint256 amount) public override returns (bool) {\r\n        _transfer(_msgSender(), recipient, amount);\r\n        return true;\r\n    }\r\n\r\n    function allowance(address owner, address spender) public view override returns (uint256) {\r\n        return _allowances[owner][spender];\r\n    }\r\n\r\n    function approve(address spender, uint256 amount) public override returns (bool) {\r\n        _approve(_msgSender(), spender, amount);\r\n        return true;\r\n    }\r\n\r\n    function transferFrom(address sender, address recipient, uint256 amount) public override returns (bool) {\r\n        _transfer(sender, recipient, amount);\r\n        _approve(sender, _msgSender(), _allowances[sender][_msgSender()].sub(amount, \"ERC20: transfer amount exceeds allowance\"));\r\n        return true;\r\n    }\r\n\r\n    function increaseAllowance(address spender, uint256 addedValue) public virtual returns (bool) {\r\n        _approve(_msgSender(), spender, _allowances[_msgSender()][spender].add(addedValue));\r\n        return true;\r\n    }\r\n\r\n    function decreaseAllowance(address spender, uint256 subtractedValue) public virtual returns (bool) {\r\n        _approve(_msgSender(), spender, _allowances[_msgSender()][spender].sub(subtractedValue, \"ERC20: decreased allowance below zero\"));\r\n        return true;\r\n    }\r\n\r\n    function burnSupply(uint256 tokenAmount) external onlyOwner() {\r\n        uint256 walletBalance = balanceOf(address(0));\r\n        require(tokenAmount < walletBalance, \"Not enough balance to burn\");\r\n\r\n        uint256 currentRate = _getRate();\r\n        uint256 toBurn = tokenAmount.mul(currentRate);\r\n        _rBalance[address(0)] = _rBalance[address(0)].sub(toBurn);\r\n\r\n        _tTotal = _tTotal.sub(tokenAmount);\r\n        _rTotal = _rTotal.sub(toBurn);\r\n        \r\n        emit BurnSupply(tokenAmount);\r\n    }\r\n\r\n\tfunction reflectionFromToken(uint256 tAmount, bool deductTransferFee) public view returns(uint256) {\r\n        require(tAmount <= _tTotal, \"Amount must be less than supply\");\r\n        if (!deductTransferFee) {\r\n            (uint256 rAmount,,,,) = _getValues(tAmount);\r\n            return rAmount;\r\n        } else {\r\n            (,uint256 rTransferAmount,,,) = _getValues(tAmount);\r\n            return rTransferAmount;\r\n        }\r\n    }\r\n\r\n    function tokenFromReflection(uint256 rAmount) public view returns(uint256) {\r\n        require(rAmount <= _rTotal, \"Amount must be less than total reflections\");\r\n        uint256 currentRate =  _getRate();\r\n        return rAmount.div(currentRate);\r\n    }\r\n\r\n    function excludeFromReward(address account) public onlyOwner() {\r\n        require(!_isExcludedFromReward[account], \"Account is already excluded\");\r\n        if(_rBalance[account] > 0) {\r\n            _tBalance[account] = tokenFromReflection(_rBalance[account]);\r\n        }\r\n        _isExcludedFromReward[account] = true;\r\n        _excludedFromReward.push(account);\r\n    }\r\n\r\n    function includeInReward(address account) external onlyOwner() {\r\n        require(_isExcludedFromReward[account], \"Account is already excluded\");\r\n        for (uint256 i = 0; i < _excludedFromReward.length; i++) {\r\n            if (_excludedFromReward[i] == account) {\r\n                _excludedFromReward[i] = _excludedFromReward[_excludedFromReward.length - 1];\r\n                _tBalance[account] = 0;\r\n                _isExcludedFromReward[account] = false;\r\n                _excludedFromReward.pop();\r\n                break;\r\n            }\r\n        }\r\n    }\r\n\r\n    function totalFees() public view returns (uint256) {\r\n        return _tFeeTotal;\r\n    }\r\n    \r\n    function excludeFromFee(address account) public onlyOwner {\r\n        _isExcludedFromFee[account] = true;\r\n    }\r\n    \r\n    function includeInFee(address account) public onlyOwner {\r\n        _isExcludedFromFee[account] = false;\r\n    }\r\n    \r\n    function setTaxFeePercent(uint256 taxFee) external onlyOwner() {\r\n        require(taxFee <= _maxTaxFee, 'Tax fee set exceeded maximum allowable tax fee');\r\n        _taxFee = taxFee;\r\n    }\r\n   \r\n    function setMaxTxPercent(uint256 maxTxPercent) external onlyOwner() {\r\n        require(maxTxPercent >= 1, 'Cannot set to 0'); // max transaction percent can not be lower than 0.1%\r\n        _maxTxAmount = _tTotal.mul(maxTxPercent).div(\r\n            10**3\r\n        );\r\n    }\r\n    \r\n    function excludeFromFeeIn(address user) external onlyOwner {\r\n        _isExcludedFromFeeIn[user] = true;\r\n    }\r\n    \r\n    function excludeFromFeeOut(address user) external onlyOwner {\r\n        _isExcludedFromFeeOut[user] = true;\r\n    }\r\n\r\n    function includeInFeeIn(address user) external onlyOwner {\r\n        _isExcludedFromFeeIn[user] = false;\r\n    }\r\n    \r\n    function includeInFeeOut(address user) external onlyOwner {\r\n        _isExcludedFromFeeOut[user] = false;\r\n    }\r\n\r\n    // to receive ETH from uniswapV2Router when swaping\r\n    receive() external payable {}\r\n\r\n    function _reflectFee(uint256 rFee, uint256 tFee) private {\r\n        _rTotal = _rTotal.sub(rFee);\r\n        _tFeeTotal = _tFeeTotal.add(tFee);\r\n    }\r\n\r\n\tfunction _getValues(uint256 tAmount) private view returns (uint256, uint256, uint256, uint256, uint256) {\r\n        (uint256 tTransferAmount, uint256 tFee) = _getTValues(tAmount);\r\n        (uint256 rAmount, uint256 rTransferAmount, uint256 rFee) = _getRValues(tAmount, tFee, _getRate());\r\n        return (rAmount, rTransferAmount, rFee, tTransferAmount, tFee);\r\n    }\r\n\r\n    function _getTValues(uint256 tAmount) private view returns (uint256, uint256) {\r\n        uint256 tFee = calculateTaxFee(tAmount);\r\n        uint256 tTransferAmount = tAmount.sub(tFee);\r\n        return (tTransferAmount, tFee);\r\n    }\r\n\r\n    function _getRValues(uint256 tAmount, uint256 tFee, uint256 currentRate) private pure returns (uint256, uint256, uint256) {\r\n        uint256 rAmount = tAmount.mul(currentRate);\r\n        uint256 rFee = tFee.mul(currentRate);\r\n        uint256 rTransferAmount = rAmount.sub(rFee);\r\n        return (rAmount, rTransferAmount, rFee);\r\n    }\r\n\r\n    function _getRate() private view returns(uint256) {\r\n        (uint256 rSupply, uint256 tSupply) = _getCurrentSupply();\r\n        return rSupply.div(tSupply);\r\n    }\r\n\r\n    function _getCurrentSupply() private view returns(uint256, uint256) {\r\n        uint256 rSupply = _rTotal;\r\n        uint256 tSupply = _tTotal;      \r\n        for (uint256 i = 0; i < _excludedFromReward.length; i++) {\r\n            if (_rBalance[_excludedFromReward[i]] > rSupply || _tBalance[_excludedFromReward[i]] > tSupply) return (_rTotal, _tTotal);\r\n            rSupply = rSupply.sub(_rBalance[_excludedFromReward[i]]);\r\n            tSupply = tSupply.sub(_tBalance[_excludedFromReward[i]]);\r\n        }\r\n        if (rSupply < _rTotal.div(_tTotal)) return (_rTotal, _tTotal);\r\n        return (rSupply, tSupply);\r\n    }\r\n    \r\n    function calculateTaxFee(uint256 _amount) private view returns (uint256) {\r\n        return _amount.mul(_taxFee).div(\r\n            10**2\r\n        );\r\n    }\r\n    \r\n    function removeAllFee() private {\r\n        if(_taxFee == 0) return;\r\n        \r\n        _previousTaxFee = _taxFee;\r\n        _taxFee = 0;\r\n    }\r\n    \r\n    function restoreAllFee() private {\r\n        _taxFee = _previousTaxFee;\r\n    }\r\n    \r\n    function isExcludedFromFee(address account) public view returns(bool) {\r\n        return _isExcludedFromFee[account];\r\n    }\r\n\r\n    function _approve(address owner, address spender, uint256 amount) private {\r\n        require(owner != address(0), \"ERC20: approve from the zero address\");\r\n        require(spender != address(0), \"ERC20: approve to the zero address\");\r\n\r\n        _allowances[owner][spender] = amount;\r\n        emit Approval(owner, spender, amount);\r\n    }\r\n\r\n    function _transfer(address from, address to, uint256 amount) private {\r\n        require(from != address(0), \"ERC20: transfer from the zero address\");\r\n        require(to != address(0), \"ERC20: transfer to the zero address\");\r\n        require(amount > 0, \"Transfer amount must be greater than zero\");\r\n        \r\n        if(from != owner() && to != owner() && from != address(this))\r\n            require(amount <= _maxTxAmount, \"Transfer amount exceeds the maxTxAmount.\");\r\n    \r\n        bool takeFee = true;\r\n        \r\n        // check if fees should be excluded\r\n        if(\r\n            _isExcludedFromFee[from] ||\r\n            _isExcludedFromFee[to] ||\r\n            _isExcludedFromFeeIn[to] ||\r\n            _isExcludedFromFeeOut[from]\r\n        ){\r\n            takeFee = false;\r\n        }\r\n\r\n        _tokenTransfer(from, to, amount, takeFee);\r\n    }\r\n\r\n    function _tokenTransfer(address sender, address recipient, uint256 amount,bool takeFee) private {\r\n        if(!takeFee)\r\n            removeAllFee();\r\n        \r\n        if (_isExcludedFromReward[sender] && !_isExcludedFromReward[recipient]) {\r\n            _transferFromExcluded(sender, recipient, amount);\r\n        } else if (!_isExcludedFromReward[sender] && _isExcludedFromReward[recipient]) {\r\n            _transferToExcluded(sender, recipient, amount);\r\n        } else if (!_isExcludedFromReward[sender] && !_isExcludedFromReward[recipient]) {\r\n            _transferStandard(sender, recipient, amount);\r\n        } else if (_isExcludedFromReward[sender] && _isExcludedFromReward[recipient]) {\r\n            _transferBothExcluded(sender, recipient, amount);\r\n        } else {\r\n            _transferStandard(sender, recipient, amount);\r\n        }\r\n        \r\n        if(!takeFee)\r\n            restoreAllFee();\r\n    }\r\n\r\n    function _transferStandard(address sender, address recipient, uint256 tAmount) private {\r\n        (uint256 rAmount, uint256 rTransferAmount, uint256 rFee, uint256 tTransferAmount, uint256 tFee) = _getValues(tAmount);\r\n        _rBalance[sender] = _rBalance[sender].sub(rAmount);\r\n        _rBalance[recipient] = _rBalance[recipient].add(rTransferAmount);\r\n        _reflectFee(rFee, tFee);\r\n        emit Transfer(sender, recipient, tTransferAmount);\r\n    }\r\n\r\n    function _transferToExcluded(address sender, address recipient, uint256 tAmount) private {\r\n        (uint256 rAmount, uint256 rTransferAmount, uint256 rFee, uint256 tTransferAmount, uint256 tFee) = _getValues(tAmount);\r\n        _rBalance[sender] = _rBalance[sender].sub(rAmount);\r\n        _tBalance[recipient] = _tBalance[recipient].add(tTransferAmount);\r\n        _rBalance[recipient] = _rBalance[recipient].add(rTransferAmount);\r\n        _reflectFee(rFee, tFee);\r\n        emit Transfer(sender, recipient, tTransferAmount);\r\n    }\r\n\r\n    function _transferFromExcluded(address sender, address recipient, uint256 tAmount) private {\r\n        (uint256 rAmount, uint256 rTransferAmount, uint256 rFee, uint256 tTransferAmount, uint256 tFee) = _getValues(tAmount);\r\n        _tBalance[sender] = _tBalance[sender].sub(tAmount);\r\n        _rBalance[sender] = _rBalance[sender].sub(rAmount);\r\n        _rBalance[recipient] = _rBalance[recipient].add(rTransferAmount);\r\n        _reflectFee(rFee, tFee);\r\n        emit Transfer(sender, recipient, tTransferAmount);\r\n    }\r\n    \r\n    function _transferBothExcluded(address sender, address recipient, uint256 tAmount) private {\r\n        (uint256 rAmount, uint256 rTransferAmount, uint256 rFee, uint256 tTransferAmount, uint256 tFee) = _getValues(tAmount);\r\n        _tBalance[sender] = _tBalance[sender].sub(tAmount);\r\n        _rBalance[sender] = _rBalance[sender].sub(rAmount);\r\n        _tBalance[recipient] = _tBalance[recipient].add(tTransferAmount);\r\n        _rBalance[recipient] = _rBalance[recipient].add(rTransferAmount);\r\n        _reflectFee(rFee, tFee);\r\n        emit Transfer(sender, recipient, tTransferAmount);\r\n    }\r\n\r\n    function swapTokensForEth(uint256 tokenAmount) private {\r\n        // generate the uniswap pair path of token -> weth\r\n        address[] memory path = new address[](2);\r\n        path[0] = address(this);\r\n        path[1] = uniswapV2Router.WETH();\r\n\r\n        _approve(address(this), address(uniswapV2Router), tokenAmount);\r\n\r\n        // make the swap\r\n        uniswapV2Router.swapExactTokensForETHSupportingFeeOnTransferTokens(\r\n            tokenAmount,\r\n            0, // accept any amount of ETH\r\n            path,\r\n            address(this),\r\n            block.timestamp\r\n        );\r\n    }\r\n\r\n    function swapEthForTokens(uint256 ethAmount) private {\r\n        // generate the uniswap pair path of token -> weth\r\n        address[] memory path = new address[](2);\r\n        path[0] = uniswapV2Router.WETH();\r\n        path[1] = address(this);\r\n\r\n        _approve(address(this), address(uniswapV2Router), ethAmount);\r\n\r\n        // make the swap\r\n        uniswapV2Router.swapExactETHForTokensSupportingFeeOnTransferTokens{value: ethAmount}(\r\n            0, // accept any amount of PLT\r\n            path,\r\n            _msgSender(), \r\n            block.timestamp\r\n        );\r\n    }\r\n\r\n    function addLiquidity() external onlyOwner {\r\n        uint256 tokenAmount = balanceOf(address(this));\r\n        uint256 ethAmount = address(this).balance;\r\n\r\n        // approve token transfer to cover all possible scenarios\r\n        _approve(address(this), address(uniswapV2Router), tokenAmount);\r\n\r\n        // add the liquidity\r\n        uniswapV2Router.addLiquidityETH{value: ethAmount}(\r\n            address(this),\r\n            tokenAmount,\r\n            0, // slippage is unavoidable\r\n            0, // slippage is unavoidable\r\n            owner(),\r\n            block.timestamp\r\n        );\r\n    }\r\n\r\n    function getLiquidity() public view returns (uint, uint) {\r\n        IUniswapV2Pair pair = IUniswapV2Pair(uniswapV2Pair);\r\n        (uint Res0, uint Res1,) = pair.getReserves();\r\n        \r\n        uint res0 = Res0;\r\n        uint res1 = Res1;\r\n        \r\n        return (res0, res1);\r\n    }\r\n    \r\n    function burnContractEth() external onlyOwner {\r\n        uint256 balanceETH = address(this).balance;\r\n        require(balanceETH > 0, \"No balance to burn\");\r\n        \r\n        // send token to owner() as uniswap does not accept address(0)\r\n        uint256 balanceOwner_i = balanceOf(owner());\r\n        swapEthForTokens(balanceETH);\r\n        uint256 balanceOwner_j = balanceOf(owner());\r\n        uint256 toBurn = balanceOwner_j.sub(balanceOwner_i);\r\n        \r\n        // sends token from owner() to address(0)\r\n        _tokenTransfer(_msgSender(), address(0), toBurn, false);\r\n\r\n        emit BurnContractEth(toBurn);\r\n    }\r\n    \r\n    /*\r\n     * Code for locking LP tokens\r\n    */\r\n\r\n    struct LpToken {\r\n        uint256 amount; \r\n        uint256 deadline;\r\n    }\r\n    \r\n    LpToken[] LpTokenList;\r\n    \r\n    event LpTokensLocked(uint256 amount, uint deadline);\r\n    event LpTokensWithdrawn(uint256 amount);\r\n    \r\n    function lockLpTokens(uint256 amount, uint deadline) public onlyOwner {\r\n        require(deadline > block.timestamp, 'TokenTimelock: release time is before current time');\r\n\r\n        LpToken memory lpLock = LpToken(amount, deadline);\r\n        LpTokenList.push(lpLock);\r\n        \r\n        IUniswapV2Pair lpToken = IUniswapV2Pair(uniswapV2Pair);\r\n        uint256 _allowance = lpToken.allowance(_msgSender(), address(this));\r\n\r\n        require(_allowance >= amount, 'Not enough allowance');\r\n        lpToken.transferFrom(_msgSender(), address(this), amount);\r\n        \r\n        emit LpTokensLocked(amount, deadline);\r\n    }\r\n    \r\n    function withdrawLpTokens() public onlyOwner {\r\n        require(LpTokenList.length > 0, 'TokenTimelock: no locked tokens to withdraw');\r\n        (uint256[] memory amounts, uint[] memory deadlines) = getLockedLpTokens();\r\n        uint256 withdrawAmount = 0;\r\n        for (uint i; i < amounts.length; i++) {\r\n            if (deadlines[i] <= block.timestamp) {\r\n                withdrawAmount += amounts[i];\r\n                \r\n                // delete element from array and remove the gaps\r\n                for (uint ii = i; ii < LpTokenList.length-1; ii++){\r\n                    LpTokenList[ii] = LpTokenList[ii+1];\r\n                }\r\n                LpTokenList.pop();\r\n            }\r\n        }\r\n        \r\n        require(withdrawAmount > 0, 'TokenTimelock: current time is before deadline');\r\n        IUniswapV2Pair lpToken = IUniswapV2Pair(uniswapV2Pair);\r\n        \r\n        lpToken.transfer(_msgSender(), withdrawAmount);\r\n        emit LpTokensWithdrawn(withdrawAmount);\r\n    }\r\n    \r\n    /**\r\n     * Return all the locked lp tokens and\r\n     * @return amount of LP token locked and deadlines in unix timestamp\r\n     */\r\n    function getLockedLpTokens() public view returns (uint256[] memory, uint256[] memory){\r\n        uint lengths = LpTokenList.length;\r\n        uint256[] memory amounts = new uint256[](lengths);\r\n        uint[] memory deadlines = new uint[](lengths);\r\n        \r\n        for (uint i; i < lengths; i++) {\r\n            amounts[i] = LpTokenList[i].amount;\r\n            deadlines[i] = LpTokenList[i].deadline;\r\n        }\r\n        \r\n        return (amounts, deadlines);\r\n    }\r\n}\r\n",
  "sourcePath": "/home/yq/Documents/LEAP/LeapToken/contracts/Leap.sol",
  "compiler": {
    "name": "solc",
    "version": "0.6.12+commit.27d51765.Emscripten.clang"
  },
  "schemaVersion": "3.3.4",
  "updatedAt": "2021-05-02T15:11:19.320Z",
  "devdoc": {
    "kind": "dev",
    "methods": {
      "allowance(address,address)": {
        "details": "Returns the remaining number of tokens that `spender` will be allowed to spend on behalf of `owner` through {transferFrom}. This is zero by default. This value changes when {approve} or {transferFrom} are called."
      },
      "approve(address,uint256)": {
        "details": "Sets `amount` as the allowance of `spender` over the caller's tokens. Returns a boolean value indicating whether the operation succeeded. IMPORTANT: Beware that changing an allowance with this method brings the risk that someone may use both the old and the new allowance by unfortunate transaction ordering. One possible solution to mitigate this race condition is to first reduce the spender's allowance to 0 and set the desired value afterwards: https://github.com/ethereum/EIPs/issues/20#issuecomment-263524729 Emits an {Approval} event."
      },
      "balanceOf(address)": {
        "details": "Returns the amount of tokens owned by `account`."
      },
      "getLockedLpTokens()": {
        "returns": {
          "_0": "amount of LP token locked and deadlines in unix timestamp"
        }
      },
      "owner()": {
        "details": "Returns the address of the current owner."
      },
      "renounceOwnership()": {
        "details": "Leaves the contract without owner. It will not be possible to call `onlyOwner` functions anymore. Can only be called by the current owner. NOTE: Renouncing ownership will leave the contract without an owner, thereby removing any functionality that is only available to the owner."
      },
      "transfer(address,uint256)": {
        "details": "Moves `amount` tokens from the caller's account to `recipient`. Returns a boolean value indicating whether the operation succeeded. Emits a {Transfer} event."
      },
      "transferFrom(address,address,uint256)": {
        "details": "Moves `amount` tokens from `sender` to `recipient` using the allowance mechanism. `amount` is then deducted from the caller's allowance. Returns a boolean value indicating whether the operation succeeded. Emits a {Transfer} event."
      },
      "transferOwnership(address)": {
        "details": "Transfers ownership of the contract to a new account (`newOwner`). Can only be called by the current owner."
      }
    },
    "version": 1
  },
  "userdoc": {
    "kind": "user",
    "methods": {
      "getLockedLpTokens()": {
        "notice": "Return all the locked lp tokens and"
      }
    },
    "version": 1
  }
}